{
  "_format": "hh-sol-artifact-1",
  "contractName": "RifainSwap",
  "sourceName": "contracts/RifainSwap.sol",
  "abi": [
    {
      "inputs": [],
      "stateMutability": "nonpayable",
      "type": "constructor"
    },
    {
      "anonymous": false,
      "inputs": [
        {
          "indexed": true,
          "internalType": "address",
          "name": "owner",
          "type": "address"
        },
        {
          "indexed": true,
          "internalType": "int24",
          "name": "tickLower",
          "type": "int24"
        },
        {
          "indexed": true,
          "internalType": "int24",
          "name": "tickUpper",
          "type": "int24"
        },
        {
          "indexed": false,
          "internalType": "uint128",
          "name": "amount",
          "type": "uint128"
        },
        {
          "indexed": false,
          "internalType": "uint256",
          "name": "amount0",
          "type": "uint256"
        },
        {
          "indexed": false,
          "internalType": "uint256",
          "name": "amount1",
          "type": "uint256"
        }
      ],
      "name": "Burn",
      "type": "event"
    },
    {
      "anonymous": false,
      "inputs": [
        {
          "indexed": true,
          "internalType": "address",
          "name": "owner",
          "type": "address"
        },
        {
          "indexed": false,
          "internalType": "address",
          "name": "recipient",
          "type": "address"
        },
        {
          "indexed": true,
          "internalType": "int24",
          "name": "tickLower",
          "type": "int24"
        },
        {
          "indexed": true,
          "internalType": "int24",
          "name": "tickUpper",
          "type": "int24"
        },
        {
          "indexed": false,
          "internalType": "uint128",
          "name": "amount0",
          "type": "uint128"
        },
        {
          "indexed": false,
          "internalType": "uint128",
          "name": "amount1",
          "type": "uint128"
        }
      ],
      "name": "Collect",
      "type": "event"
    },
    {
      "anonymous": false,
      "inputs": [
        {
          "indexed": true,
          "internalType": "address",
          "name": "sender",
          "type": "address"
        },
        {
          "indexed": true,
          "internalType": "address",
          "name": "recipient",
          "type": "address"
        },
        {
          "indexed": false,
          "internalType": "uint128",
          "name": "amount0",
          "type": "uint128"
        },
        {
          "indexed": false,
          "internalType": "uint128",
          "name": "amount1",
          "type": "uint128"
        }
      ],
      "name": "CollectProtocol",
      "type": "event"
    },
    {
      "anonymous": false,
      "inputs": [
        {
          "indexed": true,
          "internalType": "address",
          "name": "sender",
          "type": "address"
        },
        {
          "indexed": true,
          "internalType": "address",
          "name": "recipient",
          "type": "address"
        },
        {
          "indexed": false,
          "internalType": "uint256",
          "name": "amount0",
          "type": "uint256"
        },
        {
          "indexed": false,
          "internalType": "uint256",
          "name": "amount1",
          "type": "uint256"
        },
        {
          "indexed": false,
          "internalType": "uint256",
          "name": "paid0",
          "type": "uint256"
        },
        {
          "indexed": false,
          "internalType": "uint256",
          "name": "paid1",
          "type": "uint256"
        }
      ],
      "name": "Flash",
      "type": "event"
    },
    {
      "anonymous": false,
      "inputs": [
        {
          "indexed": false,
          "internalType": "uint16",
          "name": "observationCardinalityNextOld",
          "type": "uint16"
        },
        {
          "indexed": false,
          "internalType": "uint16",
          "name": "observationCardinalityNextNew",
          "type": "uint16"
        }
      ],
      "name": "IncreaseObservationCardinalityNext",
      "type": "event"
    },
    {
      "anonymous": false,
      "inputs": [
        {
          "indexed": false,
          "internalType": "uint160",
          "name": "sqrtPriceX96",
          "type": "uint160"
        },
        {
          "indexed": false,
          "internalType": "int24",
          "name": "tick",
          "type": "int24"
        }
      ],
      "name": "Initialize",
      "type": "event"
    },
    {
      "anonymous": false,
      "inputs": [
        {
          "indexed": false,
          "internalType": "address",
          "name": "sender",
          "type": "address"
        },
        {
          "indexed": true,
          "internalType": "address",
          "name": "owner",
          "type": "address"
        },
        {
          "indexed": true,
          "internalType": "int24",
          "name": "tickLower",
          "type": "int24"
        },
        {
          "indexed": true,
          "internalType": "int24",
          "name": "tickUpper",
          "type": "int24"
        },
        {
          "indexed": false,
          "internalType": "uint128",
          "name": "amount",
          "type": "uint128"
        },
        {
          "indexed": false,
          "internalType": "uint256",
          "name": "amount0",
          "type": "uint256"
        },
        {
          "indexed": false,
          "internalType": "uint256",
          "name": "amount1",
          "type": "uint256"
        }
      ],
      "name": "Mint",
      "type": "event"
    },
    {
      "anonymous": false,
      "inputs": [
        {
          "indexed": false,
          "internalType": "uint8",
          "name": "feeProtocol0Old",
          "type": "uint8"
        },
        {
          "indexed": false,
          "internalType": "uint8",
          "name": "feeProtocol1Old",
          "type": "uint8"
        },
        {
          "indexed": false,
          "internalType": "uint8",
          "name": "feeProtocol0New",
          "type": "uint8"
        },
        {
          "indexed": false,
          "internalType": "uint8",
          "name": "feeProtocol1New",
          "type": "uint8"
        }
      ],
      "name": "SetFeeProtocol",
      "type": "event"
    },
    {
      "anonymous": false,
      "inputs": [
        {
          "indexed": true,
          "internalType": "address",
          "name": "sender",
          "type": "address"
        },
        {
          "indexed": true,
          "internalType": "address",
          "name": "recipient",
          "type": "address"
        },
        {
          "indexed": false,
          "internalType": "int256",
          "name": "amount0",
          "type": "int256"
        },
        {
          "indexed": false,
          "internalType": "int256",
          "name": "amount1",
          "type": "int256"
        },
        {
          "indexed": false,
          "internalType": "uint160",
          "name": "sqrtPriceX96",
          "type": "uint160"
        },
        {
          "indexed": false,
          "internalType": "uint128",
          "name": "disponible",
          "type": "uint128"
        },
        {
          "indexed": false,
          "internalType": "int24",
          "name": "tick",
          "type": "int24"
        }
      ],
      "name": "Swap",
      "type": "event"
    },
    {
      "inputs": [
        {
          "internalType": "int24",
          "name": "tickLower",
          "type": "int24"
        },
        {
          "internalType": "int24",
          "name": "tickUpper",
          "type": "int24"
        },
        {
          "internalType": "uint128",
          "name": "amount",
          "type": "uint128"
        }
      ],
      "name": "burn",
      "outputs": [
        {
          "internalType": "uint256",
          "name": "amount0",
          "type": "uint256"
        },
        {
          "internalType": "uint256",
          "name": "amount1",
          "type": "uint256"
        }
      ],
      "stateMutability": "nonpayable",
      "type": "function"
    },
    {
      "inputs": [
        {
          "internalType": "address",
          "name": "recipient",
          "type": "address"
        },
        {
          "internalType": "int24",
          "name": "tickLower",
          "type": "int24"
        },
        {
          "internalType": "int24",
          "name": "tickUpper",
          "type": "int24"
        },
        {
          "internalType": "uint128",
          "name": "amount0Requested",
          "type": "uint128"
        },
        {
          "internalType": "uint128",
          "name": "amount1Requested",
          "type": "uint128"
        }
      ],
      "name": "collect",
      "outputs": [
        {
          "internalType": "uint128",
          "name": "amount0",
          "type": "uint128"
        },
        {
          "internalType": "uint128",
          "name": "amount1",
          "type": "uint128"
        }
      ],
      "stateMutability": "nonpayable",
      "type": "function"
    },
    {
      "inputs": [
        {
          "internalType": "address",
          "name": "recipient",
          "type": "address"
        },
        {
          "internalType": "uint128",
          "name": "amount0Requested",
          "type": "uint128"
        },
        {
          "internalType": "uint128",
          "name": "amount1Requested",
          "type": "uint128"
        }
      ],
      "name": "collectProtocol",
      "outputs": [
        {
          "internalType": "uint128",
          "name": "amount0",
          "type": "uint128"
        },
        {
          "internalType": "uint128",
          "name": "amount1",
          "type": "uint128"
        }
      ],
      "stateMutability": "nonpayable",
      "type": "function"
    },
    {
      "inputs": [],
      "name": "disponible",
      "outputs": [
        {
          "internalType": "uint128",
          "name": "",
          "type": "uint128"
        }
      ],
      "stateMutability": "view",
      "type": "function"
    },
    {
      "inputs": [],
      "name": "factory",
      "outputs": [
        {
          "internalType": "address",
          "name": "",
          "type": "address"
        }
      ],
      "stateMutability": "view",
      "type": "function"
    },
    {
      "inputs": [],
      "name": "fee",
      "outputs": [
        {
          "internalType": "uint24",
          "name": "",
          "type": "uint24"
        }
      ],
      "stateMutability": "view",
      "type": "function"
    },
    {
      "inputs": [],
      "name": "feeGrowthGlobal0X128",
      "outputs": [
        {
          "internalType": "uint256",
          "name": "",
          "type": "uint256"
        }
      ],
      "stateMutability": "view",
      "type": "function"
    },
    {
      "inputs": [],
      "name": "feeGrowthGlobal1X128",
      "outputs": [
        {
          "internalType": "uint256",
          "name": "",
          "type": "uint256"
        }
      ],
      "stateMutability": "view",
      "type": "function"
    },
    {
      "inputs": [
        {
          "internalType": "address",
          "name": "recipient",
          "type": "address"
        },
        {
          "internalType": "uint256",
          "name": "amount0",
          "type": "uint256"
        },
        {
          "internalType": "uint256",
          "name": "amount1",
          "type": "uint256"
        },
        {
          "internalType": "bytes",
          "name": "data",
          "type": "bytes"
        }
      ],
      "name": "flash",
      "outputs": [],
      "stateMutability": "nonpayable",
      "type": "function"
    },
    {
      "inputs": [
        {
          "internalType": "uint16",
          "name": "observationCardinalityNext",
          "type": "uint16"
        }
      ],
      "name": "increaseObservationCardinalityNext",
      "outputs": [],
      "stateMutability": "nonpayable",
      "type": "function"
    },
    {
      "inputs": [
        {
          "internalType": "uint160",
          "name": "sqrtPriceX96",
          "type": "uint160"
        }
      ],
      "name": "initialize",
      "outputs": [],
      "stateMutability": "nonpayable",
      "type": "function"
    },
    {
      "inputs": [],
      "name": "maxLiquidityPerTick",
      "outputs": [
        {
          "internalType": "uint128",
          "name": "",
          "type": "uint128"
        }
      ],
      "stateMutability": "view",
      "type": "function"
    },
    {
      "inputs": [
        {
          "internalType": "address",
          "name": "recipient",
          "type": "address"
        },
        {
          "internalType": "int24",
          "name": "tickLower",
          "type": "int24"
        },
        {
          "internalType": "int24",
          "name": "tickUpper",
          "type": "int24"
        },
        {
          "internalType": "uint128",
          "name": "amount",
          "type": "uint128"
        },
        {
          "internalType": "bytes",
          "name": "data",
          "type": "bytes"
        }
      ],
      "name": "mint",
      "outputs": [
        {
          "internalType": "uint256",
          "name": "amount0",
          "type": "uint256"
        },
        {
          "internalType": "uint256",
          "name": "amount1",
          "type": "uint256"
        }
      ],
      "stateMutability": "nonpayable",
      "type": "function"
    },
    {
      "inputs": [
        {
          "internalType": "uint256",
          "name": "",
          "type": "uint256"
        }
      ],
      "name": "observations",
      "outputs": [
        {
          "internalType": "uint32",
          "name": "blockTimestamp",
          "type": "uint32"
        },
        {
          "internalType": "int56",
          "name": "tickCumulative",
          "type": "int56"
        },
        {
          "internalType": "uint160",
          "name": "secondsPerLiquidityCumulativeX128",
          "type": "uint160"
        },
        {
          "internalType": "bool",
          "name": "initialized",
          "type": "bool"
        }
      ],
      "stateMutability": "view",
      "type": "function"
    },
    {
      "inputs": [
        {
          "internalType": "uint32[]",
          "name": "secondsAgos",
          "type": "uint32[]"
        }
      ],
      "name": "observe",
      "outputs": [
        {
          "internalType": "int56[]",
          "name": "tickCumulatives",
          "type": "int56[]"
        },
        {
          "internalType": "uint160[]",
          "name": "secondsPerLiquidityCumulativeX128s",
          "type": "uint160[]"
        }
      ],
      "stateMutability": "view",
      "type": "function"
    },
    {
      "inputs": [
        {
          "internalType": "bytes32",
          "name": "",
          "type": "bytes32"
        }
      ],
      "name": "positions",
      "outputs": [
        {
          "internalType": "uint128",
          "name": "disponible",
          "type": "uint128"
        },
        {
          "internalType": "uint256",
          "name": "feeGrowthInside0LastX128",
          "type": "uint256"
        },
        {
          "internalType": "uint256",
          "name": "feeGrowthInside1LastX128",
          "type": "uint256"
        },
        {
          "internalType": "uint128",
          "name": "tokensOwed0",
          "type": "uint128"
        },
        {
          "internalType": "uint128",
          "name": "tokensOwed1",
          "type": "uint128"
        }
      ],
      "stateMutability": "view",
      "type": "function"
    },
    {
      "inputs": [],
      "name": "protocolFees",
      "outputs": [
        {
          "internalType": "uint128",
          "name": "token0",
          "type": "uint128"
        },
        {
          "internalType": "uint128",
          "name": "token1",
          "type": "uint128"
        }
      ],
      "stateMutability": "view",
      "type": "function"
    },
    {
      "inputs": [
        {
          "internalType": "uint8",
          "name": "feeProtocol0",
          "type": "uint8"
        },
        {
          "internalType": "uint8",
          "name": "feeProtocol1",
          "type": "uint8"
        }
      ],
      "name": "setFeeProtocol",
      "outputs": [],
      "stateMutability": "nonpayable",
      "type": "function"
    },
    {
      "inputs": [],
      "name": "slot0",
      "outputs": [
        {
          "internalType": "uint160",
          "name": "sqrtPriceX96",
          "type": "uint160"
        },
        {
          "internalType": "int24",
          "name": "tick",
          "type": "int24"
        },
        {
          "internalType": "uint16",
          "name": "observationIndex",
          "type": "uint16"
        },
        {
          "internalType": "uint16",
          "name": "observationCardinality",
          "type": "uint16"
        },
        {
          "internalType": "uint16",
          "name": "observationCardinalityNext",
          "type": "uint16"
        },
        {
          "internalType": "uint8",
          "name": "feeProtocol",
          "type": "uint8"
        },
        {
          "internalType": "bool",
          "name": "unlocked",
          "type": "bool"
        }
      ],
      "stateMutability": "view",
      "type": "function"
    },
    {
      "inputs": [
        {
          "internalType": "int24",
          "name": "tickLower",
          "type": "int24"
        },
        {
          "internalType": "int24",
          "name": "tickUpper",
          "type": "int24"
        }
      ],
      "name": "snapshotCumulativesInside",
      "outputs": [
        {
          "internalType": "int56",
          "name": "tickCumulativeInside",
          "type": "int56"
        },
        {
          "internalType": "uint160",
          "name": "secondsPerLiquidityInsideX128",
          "type": "uint160"
        },
        {
          "internalType": "uint32",
          "name": "secondsInside",
          "type": "uint32"
        }
      ],
      "stateMutability": "view",
      "type": "function"
    },
    {
      "inputs": [
        {
          "internalType": "address",
          "name": "recipient",
          "type": "address"
        },
        {
          "internalType": "bool",
          "name": "zeroForOne",
          "type": "bool"
        },
        {
          "internalType": "int256",
          "name": "amountSpecified",
          "type": "int256"
        },
        {
          "internalType": "uint160",
          "name": "sqrtPriceLimitX96",
          "type": "uint160"
        },
        {
          "internalType": "bytes",
          "name": "data",
          "type": "bytes"
        }
      ],
      "name": "swap",
      "outputs": [
        {
          "internalType": "int256",
          "name": "amount0",
          "type": "int256"
        },
        {
          "internalType": "int256",
          "name": "amount1",
          "type": "int256"
        }
      ],
      "stateMutability": "nonpayable",
      "type": "function"
    },
    {
      "inputs": [
        {
          "internalType": "int16",
          "name": "",
          "type": "int16"
        }
      ],
      "name": "tickBitmap",
      "outputs": [
        {
          "internalType": "uint256",
          "name": "",
          "type": "uint256"
        }
      ],
      "stateMutability": "view",
      "type": "function"
    },
    {
      "inputs": [],
      "name": "tickSpacing",
      "outputs": [
        {
          "internalType": "int24",
          "name": "",
          "type": "int24"
        }
      ],
      "stateMutability": "view",
      "type": "function"
    },
    {
      "inputs": [
        {
          "internalType": "int24",
          "name": "",
          "type": "int24"
        }
      ],
      "name": "ticks",
      "outputs": [
        {
          "internalType": "uint128",
          "name": "liquidityGross",
          "type": "uint128"
        },
        {
          "internalType": "int128",
          "name": "liquidityNet",
          "type": "int128"
        },
        {
          "internalType": "uint256",
          "name": "feeGrowthOutside0X128",
          "type": "uint256"
        },
        {
          "internalType": "uint256",
          "name": "feeGrowthOutside1X128",
          "type": "uint256"
        },
        {
          "internalType": "int56",
          "name": "tickCumulativeOutside",
          "type": "int56"
        },
        {
          "internalType": "uint160",
          "name": "secondsPerLiquidityOutsideX128",
          "type": "uint160"
        },
        {
          "internalType": "uint32",
          "name": "secondsOutside",
          "type": "uint32"
        },
        {
          "internalType": "bool",
          "name": "initialized",
          "type": "bool"
        }
      ],
      "stateMutability": "view",
      "type": "function"
    },
    {
      "inputs": [],
      "name": "token0",
      "outputs": [
        {
          "internalType": "address",
          "name": "",
          "type": "address"
        }
      ],
      "stateMutability": "view",
      "type": "function"
    },
    {
      "inputs": [],
      "name": "token1",
      "outputs": [
        {
          "internalType": "address",
          "name": "",
          "type": "address"
        }
      ],
      "stateMutability": "view",
      "type": "function"
    }
  ],
  "bytecode": "0x6101606040523480156200001257600080fd5b503060601b60805260408051630890357360e41b81529051600091339163890357309160048082019260a092909190829003018186803b1580156200005657600080fd5b505afa1580156200006b573d6000803e3d6000fd5b505050506040513d601f19601f82011682018060405250810190620000919190620001bf565b60e891821b6001600160e81b03191661010052606092831b6001600160601b031990811660e05293831b841660c0529390911b90911660a052600282810b900b901b610120529050620000f08162000108602090811b6200277317901c565b60801b6001600160801b03191661014052506200040f565b600080826200011c81620d89e7196200026d565b620001289190620002d6565b9050600083806200013d620d89e719620003bd565b6200014991906200026d565b620001559190620002d6565b90506000846200016684846200036f565b6200017291906200026d565b6200017f90600162000243565b90506200019962ffffff82166001600160801b03620002ad565b95945050505050565b80516001600160a01b0381168114620001ba57600080fd5b919050565b600080600080600060a08688031215620001d857600080fd5b620001e386620001a2565b9450620001f360208701620001a2565b93506200020360408701620001a2565b9250606086015162ffffff811681146200021c57600080fd5b8092505060808601518060020b81146200023557600080fd5b809150509295509295909350565b600062ffffff808316818516808303821115620002645762000264620003e3565b01949350505050565b60008160020b8360020b80620002875762000287620003f9565b627fffff19821460001982141615620002a457620002a4620003e3565b90059392505050565b60006001600160801b0383811680620002ca57620002ca620003f9565b92169190910492915050565b60008160020b8360020b627fffff600082136000841383830485118282161615620003055762000305620003e3565b627fffff196000851282811687830587121615620003275762000327620003e3565b60008712925085820587128484161615620003465762000346620003e3565b858505871281841616156200035f576200035f620003e3565b5050509290910295945050505050565b60008160020b8360020b6000811281627fffff1901831281151615620003995762000399620003e3565b81627fffff018313811615620003b357620003b3620003e3565b5090039392505050565b60008160020b627fffff19811415620003da57620003da620003e3565b60000392915050565b634e487b7160e01b600052601160045260246000fd5b634e487b7160e01b600052601260045260246000fd5b60805160601c60a05160601c60c05160601c60e05160601c6101005160e81c6101205160e81c6101405160801c61637f6200050b6000396000818161043a01528181614a7b0152614ab201526000818161054e015281816109e901528181614ae60152614b180152600081816105af01528181610af1015281816116a701526116de015260008181610588015281816110510152818161176101528181611c29015281816121390152613cc7015260008181610198015281816111410152818161173001528181611b9c015281816120820152613bae01526000818161052701528181611d280152611f0801526000612806015261637f6000f3fe608060405234801561001057600080fd5b506004361061018e5760003560e01c80638206a4d1116100de578063c45a015511610097578063ddca3f4311610071578063ddca3f43146105aa578063f3058399146105e5578063f30dba93146105ee578063f637731d146106c257600080fd5b8063c45a015514610522578063d0c93a7c14610549578063d21220a71461058357600080fd5b80638206a4d11461047457806385b6672914610487578063883bdbfd1461049a578063a34123a7146104bb578063a38807f2146104ce578063c3a942e61461050f57600080fd5b80633c8a7d8d1161014b5780634f1eb3d8116101255780634f1eb3d814610381578063514ea4bf146103945780635339c2961461041557806370cf754a1461043557600080fd5b80633c8a7d8d146103445780634614131914610357578063490e6cbc1461036e57600080fd5b80630dfe168114610193578063128acb08146101d75780631ad8b03b146101ff578063252c09d71461023d57806332148f671461028a5780633850c7bd1461029f575b600080fd5b6101ba7f000000000000000000000000000000000000000000000000000000000000000081565b6040516001600160a01b0390911681526020015b60405180910390f35b6101ea6101e53660046156ed565b6106d5565b604080519283526020830191909152016101ce565b60035461021d906001600160801b0380821691600160801b90041682565b604080516001600160801b039384168152929091166020830152016101ce565b61025061024b366004615968565b6112b6565b6040805163ffffffff909516855260069390930b60208501526001600160a01b0390911691830191909152151560608201526080016101ce565b61029d610298366004615a1e565b6112fb565b005b6000546102f3906001600160a01b03811690600160a01b810460020b9061ffff600160b81b8204811691600160c81b8104821691600160d81b8204169060ff600160e81b8204811691600160f01b90041687565b604080516001600160a01b03909816885260029690960b602088015261ffff94851695870195909552918316606086015291909116608084015260ff1660a0830152151560c082015260e0016101ce565b6101ea610352366004615772565b6113d9565b61036060025481565b6040519081526020016101ce565b61029d61037c36600461586c565b611624565b61021d61038f3660046157c0565b611a8e565b6103df6103a2366004615968565b60076020526000908152604090208054600182015460028301546003909301546001600160801b0392831693919281811691600160801b90041685565b604080516001600160801b039687168152602081019590955284019290925283166060830152909116608082015260a0016101ce565b610360610423366004615981565b60066020526000908152604090205481565b61045c7f000000000000000000000000000000000000000000000000000000000000000081565b6040516001600160801b0390911681526020016101ce565b61029d610482366004615a78565b611cd8565b61021d610495366004615827565b611eb5565b6104ad6104a83660046158d6565b6121d5565b6040516101ce929190615b06565b6101ea6104c93660046159f2565b61225c565b6104e16104dc3660046159bf565b6123e2565b6040805160069490940b84526001600160a01b03909216602084015263ffffffff16908201526060016101ce565b60045461045c906001600160801b031681565b6101ba7f000000000000000000000000000000000000000000000000000000000000000081565b6105707f000000000000000000000000000000000000000000000000000000000000000081565b60405160029190910b81526020016101ce565b6101ba7f000000000000000000000000000000000000000000000000000000000000000081565b6105d17f000000000000000000000000000000000000000000000000000000000000000081565b60405162ffffff90911681526020016101ce565b61036060015481565b6106666105fc3660046159a4565b60056020526000908152604090208054600182015460028301546003909301546001600160801b03831693600160801b909304600f0b9290600681900b90600160381b81046001600160a01b031690600160d81b810463ffffffff1690600160f81b900460ff1688565b604080516001600160801b039099168952600f9790970b602089015295870194909452606086019290925260060b60808501526001600160a01b031660a084015263ffffffff1660c0830152151560e0820152610100016101ce565b61029d6106d0366004615a42565b61262a565b6000806106e06127fb565b856107175760405162461bcd60e51b8152602060048201526002602482015261415360f01b60448201526064015b60405180910390fd5b6040805160e0810182526000546001600160a01b0381168252600160a01b8104600290810b810b900b602083015261ffff600160b81b8204811693830193909352600160c81b810483166060830152600160d81b8104909216608082015260ff600160e81b8304811660a0830152600160f01b909204909116151560c082018190526107b55760405162461bcd60e51b815260040161070e90615bb7565b876108005780600001516001600160a01b0316866001600160a01b03161180156107fb575073fffd8963efd1fc6a506488495d951d5263988d266001600160a01b038716105b610832565b80600001516001600160a01b0316866001600160a01b031610801561083257506401000276a36001600160a01b038716115b6108645760405162461bcd60e51b815260206004820152600360248201526214d41360ea1b604482015260640161070e565b6000805460ff60f01b191681556040805160c08101909152808a6108935760048460a0015160ff16901c6108a4565b60108460a001516108a49190616242565b60ff1681526004546001600160801b031660208201526040014263ffffffff168152602001600060060b815260200160006001600160a01b031681526020016000151581525090506000808913905060006040518060e001604052808b81526020016000815260200185600001516001600160a01b03168152602001856020015160020b81526020018c61093a5760025461093e565b6001545b815260200160006001600160801b0316815260200184602001516001600160801b031681525090505b80511580159061098d5750886001600160a01b031681604001516001600160a01b031614155b15610df7576040805160e081018252600080825260208201819052918101829052606081018290526080810182905260a0810182905260c081019190915260408201516001600160a01b031681526060820151610a0e906006907f00000000000000000000000000000000000000000000000000000000000000008f612832565b15156040830152600290810b810b60208301819052620d89e719910b1215610a3f57620d89e7196020820152610a77565b610a4c620d89e719616294565b60020b816020015160020b1315610a7757610a6a620d89e719616294565b600290810b900b60208201525b610a8481602001516129f3565b6001600160a01b031660608201526040820151610b15908d610abe578b6001600160a01b031683606001516001600160a01b031611610ad8565b8b6001600160a01b031683606001516001600160a01b0316105b610ae6578260600151610ae8565b8b5b60c085015185517f0000000000000000000000000000000000000000000000000000000000000000612e0f565b60c085015260a084015260808301526001600160a01b031660408301528215610b8d57610b548160c001518260800151610b4f9190615d2a565b61302a565b82518390610b63908390616016565b90525060a0810151610b8390610b789061302a565b602084015190613040565b6020830152610bd9565b610b9a8160a0015161302a565b82518390610ba9908390615c1b565b90525060c08101516080820151610bd391610bc891610b4f9190615d2a565b602084015190613066565b60208301525b835160ff1615610c35576000846000015160ff168260c00151610bfc9190615e36565b9050808260c001818151610c10919061611a565b90525060a083018051829190610c27908390615ca2565b6001600160801b0316905250505b60c08201516001600160801b031615610c7d57610c688160c00151600160801b8460c001516001600160801b0316613086565b82608001818151610c799190615d2a565b9052505b80606001516001600160a01b031682604001516001600160a01b03161415610db657806040015115610d85578360a00151610d0757610ce5846040015160008760200151886040015188602001518a6060015160086131ff909695949392919063ffffffff16565b6001600160a01b03166080860152600690810b900b6060850152600160a08501525b6000610d5382602001518e610d1e57600154610d24565b84608001515b8f610d33578560800151610d37565b6002545b608089015160608a015160408b015160059594939291906133ec565b90508c15610d6757610d6481616264565b90505b610d758360c0015182613507565b6001600160801b031660c0840152505b8b610d94578060200151610da5565b60018160200151610da59190615fce565b600290810b900b6060830152610df1565b80600001516001600160a01b031682604001516001600160a01b031614610df157610de482604001516135c7565b600290810b900b60608301525b50610967565b836020015160020b816060015160020b14610ec857600080610e4586604001518660400151886020015188602001518a606001518b608001516008613901909695949392919063ffffffff16565b604085015160608601516000805463ffffffff60b81b1916600160c81b61ffff9586160261ffff60b81b191617600160b81b9590941694909402929092176001600160b81b031916600160a01b62ffffff60029490940b93909316929092026001600160a01b031916919091176001600160a01b0390911617905550610eed9050565b6040810151600080546001600160a01b0319166001600160a01b039092169190911790555b8060c001516001600160801b031683602001516001600160801b031614610f335760c0810151600480546001600160801b0319166001600160801b039092169190911790555b8a15610f9e57608081015160015560a08101516001600160801b031615610f995760a081015160038054600090610f749084906001600160801b0316615ca2565b92506101000a8154816001600160801b0302191690836001600160801b031602179055505b611005565b608081015160025560a08101516001600160801b0316156110055760a081015160038054601090610fe0908490600160801b90046001600160801b0316615ca2565b92506101000a8154816001600160801b0302191690836001600160801b031602179055505b8115158b1515146110265760208101518151611021908c616016565b611038565b8051611032908b616016565b81602001515b90965094508a1561113357600085121561107f5761107f7f00000000000000000000000000000000000000000000000000000000000000008d61107a886162ae565b613a94565b6000611089613b94565b604051637d241f3960e11b8152909150339063fa483e72906110b5908a908a908e908e90600401615b8d565b600060405180830381600087803b1580156110cf57600080fd5b505af11580156110e3573d6000803e3d6000fd5b505050506110ef613b94565b6110f98289613c92565b111561112d5760405162461bcd60e51b815260206004820152600360248201526249494160e81b604482015260640161070e565b5061121a565b600086121561116a5761116a7f00000000000000000000000000000000000000000000000000000000000000008d61107a896162ae565b6000611174613cad565b604051637d241f3960e11b8152909150339063fa483e72906111a0908a908a908e908e90600401615b8d565b600060405180830381600087803b1580156111ba57600080fd5b505af11580156111ce573d6000803e3d6000fd5b505050506111da613cad565b6111e48288613c92565b11156112185760405162461bcd60e51b815260206004820152600360248201526249494160e81b604482015260640161070e565b505b60408082015160c083015160608085015184518b8152602081018b90526001600160a01b03948516958101959095526001600160801b039092169084015260020b60808301528d169033907fc42079f94a6350d7e6235f29174924f928cc2ac818eb64fed8004e115fbcca679060a00160405180910390a350506000805460ff60f01b1916600160f01b17905550919890975095505050505050565b60088161ffff81106112c757600080fd5b015463ffffffff81169150600160201b810460060b90600160581b81046001600160a01b031690600160f81b900460ff1684565b600054600160f01b900460ff166113245760405162461bcd60e51b815260040161070e90615bb7565b6000805460ff60f01b191690556113396127fb565b60008054600160d81b900461ffff169061135560088385613cf9565b6000805461ffff808416600160d81b810261ffff60d81b19909316929092179092559192508316146113c1576040805161ffff8085168252831660208201527fac49e518f90a358f652e4400164f05a5d8f7e35e7747279bc3a93dbf584e125a91015b60405180910390a15b50506000805460ff60f01b1916600160f01b17905550565b600080548190600160f01b900460ff166114055760405162461bcd60e51b815260040161070e90615bb7565b6000805460ff60f01b191690556001600160801b03851661142557600080fd5b60008061147360405180608001604052808c6001600160a01b031681526020018b60020b81526020018a60020b81526020016114698a6001600160801b0316613da7565b600f0b9052613dbd565b9250925050819350809250600080600086111561149557611492613b94565b91505b84156114a6576114a3613cad565b90505b604051639f382e9b60e01b81523390639f382e9b906114cf90899089908d908d90600401615b8d565b600060405180830381600087803b1580156114e957600080fd5b505af11580156114fd573d6000803e3d6000fd5b50505050600086111561154f57611512613b94565b61151c8388613c92565b111561154f5760405162461bcd60e51b815260206004820152600260248201526104d360f41b604482015260640161070e565b841561159a5761155d613cad565b6115678287613c92565b111561159a5760405162461bcd60e51b81526020600482015260026024820152614d3160f01b604482015260640161070e565b604080513381526001600160801b038b1660208201529081018790526060810186905260028b810b91908d900b906001600160a01b038f16907f7a53080ba414158be7ec69b987b5fb7d07dee101fe85488f0853ae16239d0bde9060800160405180910390a450506000805460ff60f01b1916600160f01b17905550919890975095505050505050565b600054600160f01b900460ff1661164d5760405162461bcd60e51b815260040161070e90615bb7565b6000805460ff60f01b191690556116626127fb565b6004546001600160801b03168061169f5760405162461bcd60e51b81526020600482015260016024820152601360fa1b604482015260640161070e565b60006116d4867f000000000000000000000000000000000000000000000000000000000000000062ffffff16620f4240613ff8565b9050600061170b867f000000000000000000000000000000000000000000000000000000000000000062ffffff16620f4240613ff8565b90506000611717613b94565b90506000611723613cad565b90508815611756576117567f00000000000000000000000000000000000000000000000000000000000000008b8b613a94565b8715611787576117877f00000000000000000000000000000000000000000000000000000000000000008b8a613a94565b6040516361c9276b60e11b8152339063c3924ed6906117b090879087908c908c90600401615b8d565b600060405180830381600087803b1580156117ca57600080fd5b505af11580156117de573d6000803e3d6000fd5b5050505060006117ec613b94565b905060006117f8613cad565b9050816118058588613c92565b11156118385760405162461bcd60e51b8152602060048201526002602482015261046360f41b604482015260640161070e565b806118438487613c92565b11156118765760405162461bcd60e51b8152602060048201526002602482015261463160f01b604482015260640161070e565b6000611882858461611a565b90506000611890858461611a565b9050811561196257600080546118b290601090600160e81b900460ff16616242565b9050600060ff8216156118d1576118cc60ff831685615e36565b6118d4565b60005b90506001600160801b0381161561192857600380548291906000906119039084906001600160801b0316615ca2565b92506101000a8154816001600160801b0302191690836001600160801b031602179055505b611949611935828661611a565b600160801b8d6001600160801b0316613086565b6001600082825461195a9190615d2a565b909155505050505b8015611a165760008054600160e81b900460041c600f169081156119925761198d60ff831684615e36565b611995565b60005b90506001600160801b038116156119f057600380548291906010906119cb908490600160801b90046001600160801b0316615ca2565b92506101000a8154816001600160801b0302191690836001600160801b031602179055505b6119fd611935828561611a565b60026000828254611a0e9190615d2a565b909155505050505b604080518e8152602081018e9052908101839052606081018290526001600160a01b038f169033907fbdbdb71d7860376ba52b25a5028beea23581364a40522f6bcfb86bb1f2dca6339060800160405180910390a350506000805460ff60f01b1916600160f01b179055505050505050505050505050565b600080548190600160f01b900460ff16611aba5760405162461bcd60e51b815260040161070e90615bb7565b6000805460ff60f01b19168155611ad46007338989614038565b60038101549091506001600160801b0390811690861611611af55784611b04565b60038101546001600160801b03165b60038201549093506001600160801b03600160801b909104811690851611611b2c5783611b42565b6003810154600160801b90046001600160801b03165b91506001600160801b03831615611bcb57600381018054849190600090611b739084906001600160801b031661609b565b92506101000a8154816001600160801b0302191690836001600160801b03160217905550611bcb7f000000000000000000000000000000000000000000000000000000000000000089856001600160801b0316613a94565b6001600160801b03821615611c5857818160030160108282829054906101000a90046001600160801b0316611c00919061609b565b92506101000a8154816001600160801b0302191690836001600160801b03160217905550611c587f000000000000000000000000000000000000000000000000000000000000000089846001600160801b0316613a94565b604080516001600160a01b038a1681526001600160801b0385811660208301528416818301529051600288810b92908a900b9133917f70935338e69775456a85ddef226c395fb668b63fa0115f5f20610b388e6ca9c0919081900360600190a4506000805460ff60f01b1916600160f01b17905590969095509350505050565b600054600160f01b900460ff16611d015760405162461bcd60e51b815260040161070e90615bb7565b6000805460ff60f01b1916905560408051638da5cb5b60e01b815290516001600160a01b037f00000000000000000000000000000000000000000000000000000000000000001691638da5cb5b916004808301926020929190829003018186803b158015611d6e57600080fd5b505afa158015611d82573d6000803e3d6000fd5b505050506040513d601f19601f82011682018060405250810190611da691906156d0565b6001600160a01b0316336001600160a01b031614611dc357600080fd5b60ff82161580611de6575060048260ff1610158015611de65750600a8260ff1611155b8015611e10575060ff81161580611e10575060048160ff1610158015611e105750600a8160ff1611155b611e1957600080fd5b600054600160e81b900460ff16611e38600483901b610ff01684615d62565b6000805460ff92909216600160e81b0260ff60e81b199092169190911790557f973d8d92bb299f4af6ce49b52a8adb85ae46b9f214c4c4fc06ac77401237b133611e83601083616242565b6040805160ff9283168152600f600486901c1660208201528683169181019190915290841660608201526080016113b8565b600080548190600160f01b900460ff16611ee15760405162461bcd60e51b815260040161070e90615bb7565b6000805460ff60f01b1916905560408051638da5cb5b60e01b815290516001600160a01b037f00000000000000000000000000000000000000000000000000000000000000001691638da5cb5b916004808301926020929190829003018186803b158015611f4e57600080fd5b505afa158015611f62573d6000803e3d6000fd5b505050506040513d601f19601f82011682018060405250810190611f8691906156d0565b6001600160a01b0316336001600160a01b031614611fa357600080fd5b6003546001600160801b0390811690851611611fbf5783611fcc565b6003546001600160801b03165b6003549092506001600160801b03600160801b909104811690841611611ff25782612006565b600354600160801b90046001600160801b03165b90506001600160801b038216156120b1576003546001600160801b038381169116141561203b578161203781616195565b9250505b600380548391906000906120599084906001600160801b031661609b565b92506101000a8154816001600160801b0302191690836001600160801b031602179055506120b17f000000000000000000000000000000000000000000000000000000000000000086846001600160801b0316613a94565b6001600160801b03811615612168576003546001600160801b03828116600160801b9092041614156120eb57806120e781616195565b9150505b60038054829190601090612110908490600160801b90046001600160801b031661609b565b92506101000a8154816001600160801b0302191690836001600160801b031602179055506121687f000000000000000000000000000000000000000000000000000000000000000086836001600160801b0316613a94565b604080516001600160801b038085168252831660208201526001600160a01b0387169133917f596b573906218d3411850b26a6b437d6c4522fdb43d2d2386263f86d50b8b151910160405180910390a36000805460ff60f01b1916600160f01b1790559094909350915050565b6060806121e06127fb565b61225042858580806020026020016040519081016040528093929190818152602001838360200280828437600092018290525054600454600896959450600160a01b820460020b935061ffff600160b81b8304811693506001600160801b0390911691600160c81b90041661409c565b915091505b9250929050565b600080548190600160f01b900460ff166122885760405162461bcd60e51b815260040161070e90615bb7565b6000805460ff60f01b1916815560408051608081018252338152600288810b602083015287900b91810191909152819081906122dd90606081016122d46001600160801b038a16613da7565b61146990616264565b925092509250816122ed906162ae565b94506122f8816162ae565b935060008511806123095750600084115b1561236b5760038301546123279086906001600160801b0316615ca2565b6003840154612347908690600160801b90046001600160801b0316615ca2565b6001600160801b039182169116600160801b026001600160801b0319161760038401555b604080516001600160801b038816815260208101879052908101859052600288810b91908a900b9033907f0c396cd989a39f4459b5fa1aed6a9a8dcdbc45908acfd67e028cd568da98982c9060600160405180910390a450506000805460ff60f01b1916600160f01b179055509094909350915050565b60008060006123ef6127fb565b6123f9858561420b565b600285810b810b60009081526005602052604080822087840b90930b825281206003830154600681900b93600160381b82046001600160a01b0316928492600160d81b810463ffffffff169284929091600160f81b900460ff168061245d57600080fd5b6003820154600681900b9850600160381b81046001600160a01b03169650600160d81b810463ffffffff169450600160f81b900460ff168061249e57600080fd5b50506040805160e0810182526000546001600160a01b0381168252600160a01b8104600290810b810b810b6020840181905261ffff600160b81b8404811695850195909552600160c81b830485166060850152600160d81b8304909416608084015260ff600160e81b8304811660a0850152600160f01b909204909116151560c08301529093508e810b91900b121590506125635761253d8688616055565b61254785876160de565b6125518486616131565b99509950995050505050505050612623565b8a60020b816020015160020b121561260557602081015160408201516004546060840151429360009384936125ac9360089388938793919290916001600160801b0316906131ff565b9092509050886125bc8b84616055565b6125c69190616055565b876125d18a846160de565b6125db91906160de565b866125e68987616131565b6125f09190616131565b9c509c509c5050505050505050505050612623565b61260f8787616055565b61261986866160de565b6125518585616131565b9250925092565b6000546001600160a01b0316156126685760405162461bcd60e51b8152602060048201526002602482015261414960f01b604482015260640161070e565b6000612673826135c7565b604080516080808201835263ffffffff42168083526000602080850182905284860182905260016060958601819052600160f81b909317600855855160e0810187526001600160a01b038a16808252600289810b838501819052838a0186905297830186905295820185905260a0820184905260c090910184905282546001600160b81b0319168117600160a01b62ffffff9688900b96909616959095029490941767ffffffffffffffff60b81b19166501000001000160c81b1790915584519283528201929092528251939450909283927f98636036cb66a9c19a37435efc1e90142190214e8abeb821bdba3f2990dd4c95928290030190a150505050565b6000808261278581620d89e719615d87565b61278f9190615e4a565b9050600083806127a2620d89e719616294565b6127ac9190615d87565b6127b69190615e4a565b90506000846127c58484615fce565b6127cf9190615d87565b6127da906001615d0c565b90506127f262ffffff82166001600160801b03615df6565b95945050505050565b306001600160a01b037f0000000000000000000000000000000000000000000000000000000000000000161461283057600080fd5b565b600080806128408587615d87565b905060008660020b128015612860575061285a85876161eb565b60020b15155b15612873578061286f81616171565b9150505b831561292257600080612885836142d0565b90925090506000600160ff831681901b906128a0908261611a565b6128aa9190615d2a565b600184810b900b600090815260208c9052604090205481168015159650909150856128ec57886128dd60ff851687615fce565b6128e79190615e4a565b612917565b886128f6826142ed565b612900908561614e565b61290d9060ff1687615fce565b6129179190615e4a565b9650505050506129e9565b600080612938612933846001615bd4565b6142d0565b90925090506000612950600160ff841681901b61611a565b600184810b900b600090815260208c9052604090205490199081168015159650909150856129ab57886129848460ff61614e565b60ff16612992876001615bd4565b61299c9190615bd4565b6129a69190615e4a565b6129e2565b88836129b6836143dc565b6129c0919061614e565b60ff166129ce876001615bd4565b6129d89190615bd4565b6129e29190615e4a565b9650505050505b5094509492505050565b60008060008360020b12612a0a578260020b612a17565b8260020b612a17906162ae565b9050612a26620d89e719616294565b60020b811115612a5c5760405162461bcd60e51b81526020600482015260016024820152601560fa1b604482015260640161070e565b600060018216612a7057600160801b612a82565b6ffffcb933bd6fad37aa2d162d1a5940015b70ffffffffffffffffffffffffffffffffff1690506002821615612ac1576080612abc826ffff97272373d413259a46990580e213a615faf565b901c90505b6004821615612aeb576080612ae6826ffff2e50f5f656932ef12357cf3c7fdcc615faf565b901c90505b6008821615612b15576080612b10826fffe5caca7e10e4e61c3624eaa0941cd0615faf565b901c90505b6010821615612b3f576080612b3a826fffcb9843d60f6159c9db58835c926644615faf565b901c90505b6020821615612b69576080612b64826fff973b41fa98c081472e6896dfb254c0615faf565b901c90505b6040821615612b93576080612b8e826fff2ea16466c96a3843ec78b326b52861615faf565b901c90505b6080821615612bbd576080612bb8826ffe5dee046a99a2a811c461f1969c3053615faf565b901c90505b610100821615612be8576080612be3826ffcbe86c7900a88aedcffc83b479aa3a4615faf565b901c90505b610200821615612c13576080612c0e826ff987a7253ac413176f2b074cf7815e54615faf565b901c90505b610400821615612c3e576080612c39826ff3392b0822b70005940c7a398e4b70f3615faf565b901c90505b610800821615612c69576080612c64826fe7159475a2c29b7443b29c7fa6e889d9615faf565b901c90505b611000821615612c94576080612c8f826fd097f3bdfd2022b8845ad8f792aa5825615faf565b901c90505b612000821615612cbf576080612cba826fa9f746462d870fdf8a65dc1f90e061e5615faf565b901c90505b614000821615612cea576080612ce5826f70d869a156d2a1b890bb3df62baf32f7615faf565b901c90505b618000821615612d15576080612d10826f31be135f97d08fd981231505542fcfa6615faf565b901c90505b62010000821615612d41576080612d3c826f09aa508b5b7a84e1c677de54f3e99bc9615faf565b901c90505b62020000821615612d6c576080612d67826e5d6af8dedb81196699c329225ee604615faf565b901c90505b62040000821615612d96576080612d91826d2216e584f5fa1ea926041bedfe98615faf565b901c90505b62080000821615612dbe576080612db9826b048a170391f7dc42444e8fa2615faf565b901c90505b60008460020b1315612dd957612dd681600019615e36565b90505b612de7600160201b8261622e565b15612df3576001612df6565b60005b612e079060ff16602083901c615d2a565b949350505050565b60008080806001600160a01b03808916908a161015818712801590612e9b576000612e4f89612e418a620f42406160fe565b62ffffff16620f4240613086565b905082612e6857612e638c8c8c6001614507565b612e75565b612e758b8d8c6001614585565b9550858110612e86578a9650612e95565b612e928c8b838661464c565b96505b50612eef565b81612eb257612ead8b8b8b6000614585565b612ebf565b612ebf8a8c8b6000614507565b935083612ecb896162ae565b10612ed857899550612eef565b612eec8b8a612ee68b6162ae565b85614698565b95505b6001600160a01b038a8116908716148215612f5257808015612f0e5750815b612f2457612f1f878d8c6001614585565b612f26565b855b9550808015612f33575081155b612f4957612f44878d8c6000614507565b612f4b565b845b9450612f9c565b808015612f5c5750815b612f7257612f6d8c888c6001614507565b612f74565b855b9550808015612f81575081155b612f9757612f928c888c6000614585565b612f99565b845b94505b81158015612fb15750612fae896162ae565b85115b15612fc257612fbf896162ae565b94505b818015612fe157508a6001600160a01b0316876001600160a01b031614155b15612ff757612ff0868a61611a565b935061301b565b6130188662ffffff8a1661300e8b620f42406160fe565b62ffffff16613ff8565b93505b50505095509550955095915050565b6000600160ff1b821061303c57600080fd5b5090565b600080821215836130518482616016565b92508213151461306057600080fd5b92915050565b600080821215836130778482615c1b565b92508212151461306057600080fd5b6000808060001985870985870292508281108382030391505080600014156130c057600084116130b557600080fd5b5082900490506131f8565b8084116130cc57600080fd5b6000848688098084039381119092039190506000856130ea816162ae565b1695869004959384900493600081900304600101905061310a8184615faf565b90931792600061311b876003615faf565b600218905061312a8188615faf565b61313590600261611a565b61313f9082615faf565b905061314b8188615faf565b61315690600261611a565b6131609082615faf565b905061316c8188615faf565b61317790600261611a565b6131819082615faf565b905061318d8188615faf565b61319890600261611a565b6131a29082615faf565b90506131ae8188615faf565b6131b990600261611a565b6131c39082615faf565b90506131cf8188615faf565b6131da90600261611a565b6131e49082615faf565b90506131f08186615faf565b955050505050505b9392505050565b60008063ffffffff87166132ab576000898661ffff1661ffff8110613226576132266162f7565b60408051608081018252919092015463ffffffff808216808452600160201b8304600690810b810b900b6020850152600160581b83046001600160a01b031694840194909452600160f81b90910460ff16151560608301529092508a161461329757613294818a89886146e4565b90505b8060200151816040015192509250506133e0565b60006132b7888a616131565b90506000806132cb8c8c858c8c8c8c6147bf565b91509150816000015163ffffffff168363ffffffff1614156132fd5781602001518260400151945094505050506133e0565b805163ffffffff848116911614156133255780602001518160400151945094505050506133e0565b8151815160009161333591616131565b83519091506000906133479086616131565b90508060030b8260030b856020015185602001516133659190616055565b61336f9190615dc1565b6133799190615f5c565b84602001516133889190615c5c565b8263ffffffff168263ffffffff16866040015186604001516133aa91906160de565b6001600160a01b03166133bd9190615faf565b6133c79190615e36565b85604001516133d69190615cea565b9650965050505050505b97509795505050505050565b600286810b900b60009081526020889052604081206001810154613410908861611a565b60018201556002810154613424908761611a565b6002820155600381015461344890600160381b90046001600160a01b0316866160de565b6003820180546001600160a01b0392909216600160381b02670100000000000000600160d81b031990921691909117908190556134889060060b85616055565b60038201805460069290920b66ffffffffffffff1666ffffffffffffff1990921691909117908190556134c99063ffffffff600160d81b9091041684616131565b60038201805463ffffffff92909216600160d81b0263ffffffff60d81b1990921691909117905554600160801b9004600f0b98975050505050505050565b60008082600f0b1215613574576001600160801b03831661352783616264565b613531908561609b565b9150816001600160801b03161061356f5760405162461bcd60e51b81526020600482015260026024820152614c5360f01b604482015260640161070e565b613060565b6001600160801b0383166135888385615ca2565b9150816001600160801b031610156130605760405162461bcd60e51b81526020600482015260026024820152614c4160f01b604482015260640161070e565b60006401000276a36001600160a01b03831610801590613603575073fffd8963efd1fc6a506488495d951d5263988d266001600160a01b038316105b6136335760405162461bcd60e51b81526020600482015260016024820152602960f91b604482015260640161070e565b640100000000600160c01b03602083901b166001600160801b03811160071b81811c67ffffffffffffffff811160061b90811c63ffffffff811160051b90811c61ffff811160041b90811c60ff8111600390811b91821c600f811160021b90811c918211600190811b92831c979088119617909417909217179091171717608081106136ce576136c4607f8261611a565b83901c91506136df565b6136d981607f61611a565b83901b91505b600060406136ee608084616016565b901b9050828302607f1c92508260801c80603f1b8217915083811c935050828302607f1c92508260801c80603e1b8217915083811c935050828302607f1c92508260801c80603d1b8217915083811c935050828302607f1c92508260801c80603c1b8217915083811c935050828302607f1c92508260801c80603b1b8217915083811c935050828302607f1c92508260801c80603a1b8217915083811c935050828302607f1c92508260801c8060391b8217915083811c935050828302607f1c92508260801c8060381b8217915083811c935050828302607f1c92508260801c8060371b8217915083811c935050828302607f1c92508260801c8060361b8217915083811c935050828302607f1c92508260801c8060351b8217915083811c935050828302607f1c92508260801c8060341b8217915083811c935050828302607f1c92508260801c8060331b8217915083811c935050828302607f1c92508260801c8060321b8217915050600081693627a301d71055774c856138719190615ed7565b9050600060806138916f028f6481ab7f045a5af012a19d003aaa84616016565b901d9050600060806138b3846fdb2df09e81959a81455e260799a0632f615c1b565b901d90508060020b8260020b146138f257886001600160a01b03166138d7826129f3565b6001600160a01b031611156138ec57816138f4565b806138f4565b815b9998505050505050505050565b6000806000898961ffff1661ffff811061391d5761391d6162f7565b60408051608081018252919092015463ffffffff808216808452600160201b8304600690810b810b900b6020850152600160581b83046001600160a01b031694840194909452600160f81b90910460ff16151560608301529092508916141561398c57888592509250506133e0565b8461ffff168461ffff161180156139b457506139a96001866160c3565b61ffff168961ffff16145b156139c1578391506139c5565b8491505b816139d18a6001615ccd565b6139db919061620d565b92506139e9818989896146e4565b8a8461ffff1661ffff8110613a0057613a006162f7565b825191018054602084015160408501516060909501511515600160f81b026001600160f81b036001600160a01b03909616600160581b02959095166affffffffffffffffffffff60069290920b66ffffffffffffff16600160201b026affffffffffffffffffffff1990931663ffffffff909516949094179190911716919091179190911790555097509795505050505050565b604080516001600160a01b038481166024830152604480830185905283518084039091018152606490920183526020820180516001600160e01b031663a9059cbb60e01b1790529151600092839290871691613af09190615acb565b6000604051808303816000865af19150503d8060008114613b2d576040519150601f19603f3d011682016040523d82523d6000602084013e613b32565b606091505b5091509150818015613b5c575080511580613b5c575080806020019051810190613b5c919061594b565b613b8d5760405162461bcd60e51b81526020600482015260026024820152612a2360f11b604482015260640161070e565b5050505050565b604051306024820152600090819081906001600160a01b037f000000000000000000000000000000000000000000000000000000000000000016906370a0823160e01b906044015b60408051601f198184030181529181526020820180516001600160e01b03166001600160e01b0319909416939093179092529051613c1a9190615acb565b600060405180830381855afa9150503d8060008114613c55576040519150601f19603f3d011682016040523d82523d6000602084013e613c5a565b606091505b5091509150818015613c6e57506020815110155b613c7757600080fd5b80806020019051810190613c8b9190615a5f565b9250505090565b600082613c9f8382615d2a565b915081101561306057600080fd5b604051306024820152600090819081906001600160a01b037f000000000000000000000000000000000000000000000000000000000000000016906370a0823160e01b90604401613bdc565b6000808361ffff1611613d325760405162461bcd60e51b81526020600482015260016024820152604960f81b604482015260640161070e565b8261ffff168261ffff1611613d485750816131f8565b825b8261ffff168161ffff161015613d9e576001858261ffff1661ffff8110613d7357613d736162f7565b01805463ffffffff191663ffffffff9290921691909117905580613d96816161ae565b915050613d4a565b50909392505050565b80600f81900b8114613db857600080fd5b919050565b6000806000613dca6127fb565b613ddc8460200151856040015161420b565b6040805160e0810182526000546001600160a01b0381168252600160a01b8104600290810b810b900b602080840182905261ffff600160b81b8404811685870152600160c81b84048116606080870191909152600160d81b8504909116608086015260ff600160e81b8504811660a0870152600160f01b909404909316151560c085015288519089015194890151928901519394613e8094919390929091906149f9565b93508460600151600f0b600014613ff057846020015160020b816020015160020b1215613ed557613ece613eb786602001516129f3565b613ec487604001516129f3565b8760600151614be2565b9250613ff0565b846040015160020b816020015160020b1215613fc65760045460408201516001600160801b0390911690613f2090426020850151606086015160808701516008949392918791613901565b6000805463ffffffff60b81b1916600160c81b61ffff9384160261ffff60b81b191617600160b81b939092169290920217905581516040870151613f729190613f68906129f3565b8860600151614be2565b9350613f90613f8487602001516129f3565b83516060890151614c24565b9250613fa0818760600151613507565b600480546001600160801b0319166001600160801b039290921691909117905550613ff0565b613fed613fd686602001516129f3565b613fe387604001516129f3565b8760600151614c24565b91505b509193909250565b6000614005848484613086565b905060008280614017576140176162e1565b84860911156131f857600019811061402e57600080fd5b806127f2816161d0565b6040805160609490941b6bffffffffffffffffffffffff1916602080860191909152600293840b60e890811b60348701529290930b90911b60378401528051601a818503018152603a90930181528251928201929092206000908152929052902090565b60608060008361ffff16116140d75760405162461bcd60e51b81526020600482015260016024820152604960f81b604482015260640161070e565b865167ffffffffffffffff8111156140f1576140f161630d565b60405190808252806020026020018201604052801561411a578160200160208202803683370190505b509150865167ffffffffffffffff8111156141375761413761630d565b604051908082528060200260200182016040528015614160578160200160208202803683370190505b50905060005b87518110156141fe576141978a8a8a8481518110614186576141866162f7565b60200260200101518a8a8a8a6131ff565b8483815181106141a9576141a96162f7565b602002602001018484815181106141c2576141c26162f7565b60200260200101826001600160a01b03166001600160a01b03168152508260060b60060b815250505080806141f6906161d0565b915050614166565b5097509795505050505050565b8060020b8260020b126142465760405162461bcd60e51b8152602060048201526003602482015262544c5560e81b604482015260640161070e565b620d89e719600283900b12156142845760405162461bcd60e51b8152602060048201526003602482015262544c4d60e81b604482015260640161070e565b614291620d89e719616294565b60020b8160020b13156142cc5760405162461bcd60e51b815260206004820152600360248201526254554d60e81b604482015260640161070e565b5050565b600281900b60081d60006142e6610100846161eb565b9050915091565b60008082116142fb57600080fd5b600160801b821061431957608091821c916143169082615d62565b90505b68010000000000000000821061433c57604091821c916143399082615d62565b90505b600160201b821061435a57602091821c916143579082615d62565b90505b62010000821061437757601091821c916143749082615d62565b90505b610100821061439357600891821c916143909082615d62565b90505b601082106143ae57600491821c916143ab9082615d62565b90505b600482106143c957600291821c916143c69082615d62565b90505b60028210613db857613060600182615d62565b60008082116143ea57600080fd5b5060ff6001600160801b0382161561440e5761440760808261614e565b9050614416565b608082901c91505b67ffffffffffffffff8216156144385761443160408261614e565b9050614440565b604082901c91505b63ffffffff82161561445e5761445760208261614e565b9050614466565b602082901c91505b61ffff8216156144825761447b60108261614e565b905061448a565b601082901c91505b60ff8216156144a55761449e60088261614e565b90506144ad565b600882901c91505b600f8216156144c8576144c160048261614e565b90506144d0565b600482901c91505b60038216156144eb576144e460028261614e565b90506144f3565b600282901c91505b6001821615613db85761306060018261614e565b6000836001600160a01b0316856001600160a01b03161115614527579293925b8161455b576145566001600160801b03841661454387876160de565b6001600160a01b0316600160601b613086565b6127f2565b6127f26001600160801b03841661457287876160de565b6001600160a01b0316600160601b613ff8565b6000836001600160a01b0316856001600160a01b031611156145a5579293925b600160601b600160e01b03606084901b1660006145c287876160de565b6001600160a01b031690506000876001600160a01b0316116145e357600080fd5b8361461557866001600160a01b03166146068383896001600160a01b0316613086565b6146109190615e36565b614641565b61464161462c8383896001600160a01b0316613ff8565b886001600160a01b0316808204910615150190565b979650505050505050565b600080856001600160a01b03161161466357600080fd5b6000846001600160801b03161161467957600080fd5b8161468b576145568585856001614c58565b6127f28585856001614d3f565b600080856001600160a01b0316116146af57600080fd5b6000846001600160801b0316116146c557600080fd5b816146d7576145568585856000614d3f565b6127f28585856000614c58565b60408051608081018252600080825260208201819052918101829052606081019190915284516000906147179086616131565b905060405180608001604052808663ffffffff1681526020018260030b8660020b6147429190615f5c565b88602001516147519190615c5c565b60060b81526020016000856001600160801b031611614771576001614773565b845b614793906001600160801b031663ffffffff60801b608086901b16615e1c565b88604001516147a29190615cea565b6001600160a01b0316815260016020909101529695505050505050565b604080516080810182526000808252602082018190529181018290526060810191909152604080516080810182526000808252602082018190529181018290526060810191909152888561ffff1661ffff811061481e5761481e6162f7565b60408051608081018252919092015463ffffffff8116808352600160201b8204600690810b810b900b6020840152600160581b82046001600160a01b031693830193909352600160f81b900460ff1615156060820152925061488290899089614e54565b156148ba578663ffffffff16826000015163ffffffff1614156148a4576133e0565b816148b1838989886146e4565b915091506133e0565b88836148c7876001615ccd565b6148d1919061620d565b61ffff1661ffff81106148e6576148e66162f7565b60408051608081018252929091015463ffffffff81168352600160201b8104600690810b810b900b60208401526001600160a01b03600160581b8204169183019190915260ff600160f81b9091041615156060820181905290925061499b57604080516080810182528a5463ffffffff81168252600160201b8104600690810b810b900b6020830152600160581b81046001600160a01b031692820192909252600160f81b90910460ff161515606082015291505b6149aa88836000015189614e54565b6149dc5760405162461bcd60e51b815260206004820152600360248201526213d31160ea1b604482015260640161070e565b6149e98989898887614f23565b9150915097509795505050505050565b6000614a086007878787614038565b60015460025491925090600080600f87900b15614b4057600080546004544292918291614a659160089186918591600160a01b820460020b9161ffff600160b81b82048116926001600160801b031691600160c81b9004166131ff565b9092509050614a9f60058d8b8d8b8b87898b60007f0000000000000000000000000000000000000000000000000000000000000000615147565b9450614ad660058c8b8d8b8b87898b60017f0000000000000000000000000000000000000000000000000000000000000000615147565b93508415614b0a57614b0a60068d7f0000000000000000000000000000000000000000000000000000000000000000615308565b8315614b3c57614b3c60068c7f0000000000000000000000000000000000000000000000000000000000000000615308565b5050505b600080614b5260058c8c8b8a8a61535d565b9092509050614b63878a848461544c565b600089600f0b1215614bd3578315614ba15760028b810b810b6000908152600560205260408120818155600181018290559182018190556003909101555b8215614bd35760028a810b810b6000908152600560205260408120818155600181018290559182018190556003909101555b50505050505095945050505050565b60008082600f0b12614c0357614bfe610b4f8585856001614585565b612e07565b614c1b610b4f8585614c1486616264565b6000614585565b612e07906162ae565b60008082600f0b12614c4057614bfe610b4f8585856001614507565b614c1b610b4f8585614c5186616264565b6000614507565b60008115614cca5760006001600160a01b03841115614c8e57614c8984600160601b876001600160801b0316613086565b614ca5565b614ca56001600160801b038616606086901b615e36565b9050614cc2614cbd6001600160a01b03881683613c92565b61563e565b915050612e07565b60006001600160a01b03841115614cf857614cf384600160601b876001600160801b0316613ff8565b614d15565b614d15606085901b6001600160801b038716808204910615150190565b905080866001600160a01b031611614d2c57600080fd5b614cc2816001600160a01b03881661611a565b600082614d4d575083612e07565b600160601b600160e01b03606085901b168215614df75760006001600160a01b03871685614d7b8282615faf565b9250614d879083615e36565b1415614dc2576000614d998284615d2a565b9050828110614dc057614db683896001600160a01b031683613ff8565b9350505050612e07565b505b614dee82614de387614ddd6001600160a01b038c1684615e36565b90613c92565b808204910615150190565b92505050612e07565b60006001600160a01b03871685614e0e8282615faf565b9250614e1a9083615e36565b148015614e2657508082115b614e2f57600080fd5b6000614e3b828461611a565b9050614db6614cbd848a6001600160a01b031684613ff8565b60008363ffffffff168363ffffffff1611158015614e7e57508363ffffffff168263ffffffff1611155b15614e9a578163ffffffff168363ffffffff16111590506131f8565b60008463ffffffff168463ffffffff1611614ec857614ec363ffffffff8516600160201b615d42565b614ed0565b8363ffffffff165b64ffffffffff16905060008563ffffffff168463ffffffff1611614f0757614f0263ffffffff8516600160201b615d42565b614f0f565b8363ffffffff165b64ffffffffff169091111595945050505050565b604080516080810182526000808252602082018190529181018290526060810191909152604080516080810182526000808252602082018190529181018290526060810191909152600083614f79866001615ccd565b614f83919061620d565b61ffff169050600060018561ffff1683614f9d9190615d2a565b614fa7919061611a565b905060005b6002614fb88385615d2a565b614fc29190615e36565b905089614fd361ffff88168361622e565b61ffff8110614fe457614fe46162f7565b60408051608081018252929091015463ffffffff81168352600160201b8104600690810b810b900b60208401526001600160a01b03600160581b8204169183019190915260ff600160f81b909104161515606082018190529095506150555761504e816001615d2a565b9250614fac565b8961ffff8716615066836001615d2a565b615070919061622e565b61ffff8110615081576150816162f7565b60408051608081018252929091015463ffffffff81168352600160201b8104600690810b810b900b60208401526001600160a01b03600160581b8204169183019190915260ff600160f81b909104161515606082015285519094506000906150eb908b908b614e54565b905080801561510457506151048a8a8760000151614e54565b1561510f575061513a565b806151265761511f60018361611a565b9250615134565b615131826001615d2a565b93505b50614fac565b5050509550959350505050565b60028a810b900b600090815260208c90526040812080546001600160801b031682615172828d613507565b9050846001600160801b0316816001600160801b031611156151bb5760405162461bcd60e51b81526020600482015260026024820152614c4f60f01b604482015260640161070e565b6001600160801b03828116159082161581141594501561526d578c60020b8e60020b1361525557600183018b9055600283018a905560038301805466ffffffffffffff60068b900b166001600160f81b0319909116600160381b6001600160a01b038d16027fff00000000ffffffffffffffffffffffffffffffffffffffff00000000000000161717600160d81b63ffffffff8a16021790555b6003830180546001600160f81b0316600160f81b1790555b82546001600160801b0319166001600160801b038216178355856152b65782546152b1906152ac90600160801b9004600f90810b810b908f900b613066565b613da7565b6152d7565b82546152d7906152ac90600160801b9004600f90810b810b908f900b613040565b8354600f9190910b6001600160801b03908116600160801b0291161790925550909c9b505050505050505050505050565b61531281836161eb565b60020b1561531f57600080fd5b60008061532f6129338486615d87565b600191820b820b60009081526020979097526040909620805460ff9097169190911b90951890945550505050565b600285810b80820b60009081526020899052604080822088850b850b83529082209193849391929184918291908a900b126153a3575050600182015460028301546153c7565b60018401546153b2908961611a565b91508360020154876153c4919061611a565b90505b6000808b60020b8b60020b12156153e95750506001830154600284015461540d565b60018501546153f8908b61611a565b915084600201548961540a919061611a565b90505b81615418858c61611a565b615422919061611a565b97508061542f848b61611a565b615439919061611a565b9650505050505050965096945050505050565b6040805160a08101825285546001600160801b0390811682526001870154602083015260028701549282019290925260038601548083166060830152600160801b900490911660808201526000600f85900b6154e65781516001600160801b03166154de5760405162461bcd60e51b815260206004820152600260248201526104e560f41b604482015260640161070e565b5080516154f5565b81516154f29086613507565b90505b600061551f83602001518661550a919061611a565b84516001600160801b0316600160801b613086565b9050600061554b846040015186615536919061611a565b85516001600160801b0316600160801b613086565b905086600f0b6000146155725787546001600160801b0319166001600160801b0384161788555b60018801869055600288018590556001600160801b0382161515806155a057506000816001600160801b0316115b15615634576003880180548391906000906155c59084906001600160801b0316615ca2565b92506101000a8154816001600160801b0302191690836001600160801b03160217905550808860030160108282829054906101000a90046001600160801b031661560f9190615ca2565b92506101000a8154816001600160801b0302191690836001600160801b031602179055505b5050505050505050565b806001600160a01b0381168114613db857600080fd5b60008083601f84011261566657600080fd5b50813567ffffffffffffffff81111561567e57600080fd5b60208301915083602082850101111561225557600080fd5b8035600281900b8114613db857600080fd5b80356001600160801b0381168114613db857600080fd5b803560ff81168114613db857600080fd5b6000602082840312156156e257600080fd5b81516131f881616323565b60008060008060008060a0878903121561570657600080fd5b863561571181616323565b955060208701356157218161633b565b945060408701359350606087013561573881616323565b9250608087013567ffffffffffffffff81111561575457600080fd5b61576089828a01615654565b979a9699509497509295939492505050565b60008060008060008060a0878903121561578b57600080fd5b863561579681616323565b95506157a460208801615696565b94506157b260408801615696565b9350615738606088016156a8565b600080600080600060a086880312156157d857600080fd5b85356157e381616323565b94506157f160208701615696565b93506157ff60408701615696565b925061580d606087016156a8565b915061581b608087016156a8565b90509295509295909350565b60008060006060848603121561583c57600080fd5b833561584781616323565b9250615855602085016156a8565b9150615863604085016156a8565b90509250925092565b60008060008060006080868803121561588457600080fd5b853561588f81616323565b94506020860135935060408601359250606086013567ffffffffffffffff8111156158b957600080fd5b6158c588828901615654565b969995985093965092949392505050565b600080602083850312156158e957600080fd5b823567ffffffffffffffff8082111561590157600080fd5b818501915085601f83011261591557600080fd5b81358181111561592457600080fd5b8660208260051b850101111561593957600080fd5b60209290920196919550909350505050565b60006020828403121561595d57600080fd5b81516131f88161633b565b60006020828403121561597a57600080fd5b5035919050565b60006020828403121561599357600080fd5b81358060010b81146131f857600080fd5b6000602082840312156159b657600080fd5b6131f882615696565b600080604083850312156159d257600080fd5b6159db83615696565b91506159e960208401615696565b90509250929050565b600080600060608486031215615a0757600080fd5b615a1084615696565b925061585560208501615696565b600060208284031215615a3057600080fd5b813561ffff811681146131f857600080fd5b600060208284031215615a5457600080fd5b81356131f881616323565b600060208284031215615a7157600080fd5b5051919050565b60008060408385031215615a8b57600080fd5b615a94836156bf565b91506159e9602084016156bf565b81835281816020850137506000828201602090810191909152601f909101601f19169091010190565b6000825160005b81811015615aec5760208186018101518583015201615ad2565b81811115615afb576000828501525b509190910192915050565b604080825283519082018190526000906020906060840190828701845b82811015615b4257815160060b84529284019290840190600101615b23565b5050508381038285015284518082528583019183019060005b81811015615b805783516001600160a01b031683529284019291840191600101615b5b565b5090979650505050505050565b848152836020820152606060408201526000615bad606083018486615aa2565b9695505050505050565b6020808252600390820152624c4f4b60e81b604082015260600190565b60008160020b8360020b6000821282627fffff03821381151615615bfa57615bfa6162cb565b82627fffff19038212811615615c1257615c126162cb565b50019392505050565b600080821280156001600160ff1b0384900385131615615c3d57615c3d6162cb565b600160ff1b8390038412811615615c5657615c566162cb565b50500190565b60008160060b8360060b6000821282667fffffffffffff03821381151615615c8657615c866162cb565b82667fffffffffffff19038212811615615c1257615c126162cb565b60006001600160801b03808316818516808303821115615cc457615cc46162cb565b01949350505050565b600061ffff808316818516808303821115615cc457615cc46162cb565b60006001600160a01b03828116848216808303821115615cc457615cc46162cb565b600062ffffff808316818516808303821115615cc457615cc46162cb565b60008219821115615d3d57615d3d6162cb565b500190565b600064ffffffffff808316818516808303821115615cc457615cc46162cb565b600060ff821660ff84168060ff03821115615d7f57615d7f6162cb565b019392505050565b60008160020b8360020b80615d9e57615d9e6162e1565b627fffff19821460001982141615615db857615db86162cb565b90059392505050565b60008160060b8360060b80615dd857615dd86162e1565b667fffffffffffff19821460001982141615615db857615db86162cb565b60006001600160801b0380841680615e1057615e106162e1565b92169190910492915050565b60006001600160a01b0383811680615e1057615e106162e1565b600082615e4557615e456162e1565b500490565b60008160020b8360020b627fffff600082136000841383830485118282161615615e7657615e766162cb565b627fffff196000851282811687830587121615615e9557615e956162cb565b60008712925085820587128484161615615eb157615eb16162cb565b85850587128184161615615ec757615ec76162cb565b5050509290910295945050505050565b60006001600160ff1b0381841382841380821686840486111615615efd57615efd6162cb565b600160ff1b6000871282811687830589121615615f1c57615f1c6162cb565b60008712925087820587128484161615615f3857615f386162cb565b87850587128184161615615f4e57615f4e6162cb565b505050929093029392505050565b60008160060b8360060b667fffffffffffff600082136000841383830485118282161615615f8c57615f8c6162cb565b667fffffffffffff196000851282811687830587121615615e9557615e956162cb565b6000816000190483118215151615615fc957615fc96162cb565b500290565b60008160020b8360020b6000811281627fffff1901831281151615615ff557615ff56162cb565b81627fffff01831381161561600c5761600c6162cb565b5090039392505050565b60008083128015600160ff1b850184121615616034576160346162cb565b6001600160ff1b038401831381161561604f5761604f6162cb565b50500390565b60008160060b8360060b6000811281667fffffffffffff1901831281151615616080576160806162cb565b81667fffffffffffff01831381161561600c5761600c6162cb565b60006001600160801b03838116908316818110156160bb576160bb6162cb565b039392505050565b600061ffff838116908316818110156160bb576160bb6162cb565b60006001600160a01b03838116908316818110156160bb576160bb6162cb565b600062ffffff838116908316818110156160bb576160bb6162cb565b60008282101561612c5761612c6162cb565b500390565b600063ffffffff838116908316818110156160bb576160bb6162cb565b600060ff821660ff841680821015616168576161686162cb565b90039392505050565b60008160020b627fffff1981141561618b5761618b6162cb565b6000190192915050565b60006001600160801b0382168061618b5761618b6162cb565b600061ffff808316818114156161c6576161c66162cb565b6001019392505050565b60006000198214156161e4576161e46162cb565b5060010190565b60008260020b806161fe576161fe6162e1565b808360020b0791505092915050565b600061ffff80841680616222576162226162e1565b92169190910692915050565b60008261623d5761623d6162e1565b500690565b600060ff831680616255576162556162e1565b8060ff84160691505092915050565b600081600f0b6f7fffffffffffffffffffffffffffffff1981141561628b5761628b6162cb565b60000392915050565b60008160020b627fffff1981141561628b5761628b6162cb565b6000600160ff1b8214156162c4576162c46162cb565b5060000390565b634e487b7160e01b600052601160045260246000fd5b634e487b7160e01b600052601260045260246000fd5b634e487b7160e01b600052603260045260246000fd5b634e487b7160e01b600052604160045260246000fd5b6001600160a01b038116811461633857600080fd5b50565b801515811461633857600080fdfea264697066735822122093e59d6bd6830fbfff9528eb134e21c4d114b1e4c17c7eba528fd0c52fdcc25f64736f6c63430008060033",
  "linkReferences": {},
  "deployedLinkReferences": {}
}